{
  "contractName": "TodoList",
  "abi": [
    {
      "constant": true,
      "inputs": [
        {
          "name": "",
          "type": "uint256"
        }
      ],
      "name": "tasks",
      "outputs": [
        {
          "name": "id",
          "type": "uint256"
        },
        {
          "name": "content",
          "type": "string"
        },
        {
          "name": "completed",
          "type": "bool"
        }
      ],
      "payable": false,
      "stateMutability": "view",
      "type": "function",
      "signature": "0x8d977672"
    },
    {
      "constant": true,
      "inputs": [],
      "name": "taskCount",
      "outputs": [
        {
          "name": "",
          "type": "uint256"
        }
      ],
      "payable": false,
      "stateMutability": "view",
      "type": "function",
      "signature": "0xb6cb58a5"
    },
    {
      "inputs": [],
      "payable": false,
      "stateMutability": "nonpayable",
      "type": "constructor",
      "signature": "constructor"
    },
    {
      "anonymous": false,
      "inputs": [
        {
          "indexed": false,
          "name": "id",
          "type": "uint256"
        },
        {
          "indexed": false,
          "name": "content",
          "type": "string"
        },
        {
          "indexed": false,
          "name": "completed",
          "type": "bool"
        }
      ],
      "name": "TaskCreated",
      "type": "event",
      "signature": "0x05d0fb833127fc08168556d0e7ca9554fc3f6bc843b3b7d2bf1c35aea6bab660"
    },
    {
      "constant": false,
      "inputs": [
        {
          "name": "_content",
          "type": "string"
        }
      ],
      "name": "createTask",
      "outputs": [],
      "payable": false,
      "stateMutability": "nonpayable",
      "type": "function",
      "signature": "0x111002aa"
    }
  ],
  "bytecode": "0x60806040526000805534801561001457600080fd5b506100d560a060405190810160405280607f81526020017f4461696c792052656d696e6465722023313a20416c6c207468652062656e656681526020017f69747320696e206c69666520636f6d652066726f6d20636f6d706f756e64206981526020017f6e746572657374202d2072656c6174696f6e73686970732c206d6f6e65792c2081526020017f6861626974732c20616e797468696e67206f6620696d706f7274616e63652e00815250610105640100000000026401000000009004565b61010060c0604051908101604052806084815260200161075e60849139640100000000610105810204565b6102c4565b600080546001908101808355604080516060810182528281526020808201878152828401879052938652848152919094208451815591518051929361015293908501929190910190610229565b5060408201518160020160006101000a81548160ff0219169083151502179055509050507f05d0fb833127fc08168556d0e7ca9554fc3f6bc843b3b7d2bf1c35aea6bab660600054826000604051808481526020018060200183151515158152602001828103825284818151815260200191508051906020019080838360005b838110156101ea5781810151838201526020016101d2565b50505050905090810190601f1680156102175780820380516001836020036101000a031916815260200191505b5094505050505060405180910390a150565b828054600181600116156101000203166002900490600052602060002090601f016020900481019282601f1061026a57805160ff1916838001178555610297565b82800160010185558215610297579182015b8281111561029757825182559160200191906001019061027c565b506102a39291506102a7565b5090565b6102c191905b808211156102a357600081556001016102ad565b90565b61048b806102d36000396000f3fe6080604052600436106100565763ffffffff7c0100000000000000000000000000000000000000000000000000000000600035041663111002aa811461005b5780638d97767214610110578063b6cb58a5146101c4575b600080fd5b34801561006757600080fd5b5061010e6004803603602081101561007e57600080fd5b81019060208101813564010000000081111561009957600080fd5b8201836020820111156100ab57600080fd5b803590602001918460018302840111640100000000831117156100cd57600080fd5b91908080601f0160208091040260200160405190810160405280939291908181526020018383808284376000920191909152509295506101eb945050505050565b005b34801561011c57600080fd5b5061013a6004803603602081101561013357600080fd5b503561030f565b604051808481526020018060200183151515158152602001828103825284818151815260200191508051906020019080838360005b8381101561018757818101518382015260200161016f565b50505050905090810190601f1680156101b45780820380516001836020036101000a031916815260200191505b5094505050505060405180910390f35b3480156101d057600080fd5b506101d96103be565b60408051918252519081900360200190f35b6000805460019081018083556040805160608101825282815260208082018781528284018790529386528481529190942084518155915180519293610238939085019291909101906103c4565b5060408201518160020160006101000a81548160ff0219169083151502179055509050507f05d0fb833127fc08168556d0e7ca9554fc3f6bc843b3b7d2bf1c35aea6bab660600054826000604051808481526020018060200183151515158152602001828103825284818151815260200191508051906020019080838360005b838110156102d05781810151838201526020016102b8565b50505050905090810190601f1680156102fd5780820380516001836020036101000a031916815260200191505b5094505050505060405180910390a150565b600160208181526000928352604092839020805481840180548651600296821615610100026000190190911695909504601f810185900485028601850190965285855290949193929091908301828280156103ab5780601f10610380576101008083540402835291602001916103ab565b820191906000526020600020905b81548152906001019060200180831161038e57829003601f168201915b5050506002909301549192505060ff1683565b60005481565b828054600181600116156101000203166002900490600052602060002090601f016020900481019282601f1061040557805160ff1916838001178555610432565b82800160010185558215610432579182015b82811115610432578251825591602001919060010190610417565b5061043e929150610442565b5090565b61045c91905b8082111561043e5760008155600101610448565b9056fea165627a7a72305820e2209563016a2d3b45aec48466be99144a650f8359f0410df701b2053253eff200294461696c792052656d696e6465722023323a205370656369666963206b6e6f776c6564676520697320666f756e64206279207075727375696e6720796f75722067656e75696e6520637572696f7369747920616e642070617373696f6e20726174686572207468616e20776861746576657220697320686f74207269676874206e6f772e",
  "source": "pragma solidity ^0.5.0;\r\n//Declaring the Solidity version\r\n\r\ncontract TodoList {\r\n\t//Declaring the smart contract with name \"TodoList\"\r\n\tuint public taskCount = 0;\r\n\t//uint initiates a state variable\r\n\t//taskCount will keep track of the number of task\r\n\t//Default Value 0 assigned to taskCount\r\n\t//\"public\" offers a way to read this value from \r\n\t//the smart contract\r\n\t//\"public\" keyword creates a function taskCount() that\r\n\t//lets us access its value outside the contract\r\n\r\n\tstruct Task {\r\n\t\t//struct allows us to create our own data type\r\n\t\t//we name this Task\r\n\t\t//below we define some attributes\r\n\t\tuint id;\r\n\t\t//id will be ID\r\n\t\tstring content;\r\n\t\t//will simply be some text\r\n\t\tbool completed;\r\n\t\t//will check the completed state of Task\r\n\t}\r\n\r\n\tmapping(uint => Task) public tasks;\r\n\t//uint takes id from Task as a key\r\n\t//tasks itself are a value\r\n\t//uint, task is key-value pair\r\n\t//mapping creates an associative array like a data base\r\n\t//public creates a function to access task\r\n\t//outside mapping\r\n\r\n\tevent TaskCreated(\r\n\t\t//creates an event to broadcast when new task completed\r\n\t\tuint id,\r\n\t\tstring content,\r\n\t\tbool completed\r\n\t\t);\r\n\r\n\tconstructor() public {\r\n\t\t//constructor function called when contract runs 1st time\r\n\t\t//in this case while deployment\r\n\t\t//this function will add tasks to the client side app\r\n\t\t//when smart contract is deployed\r\n\r\n\t\tcreateTask(\"Daily Reminder #1: All the benefits in life come from compound interest - relationships, money, habits, anything of importance.\");\r\n\r\n\t\tcreateTask(\"Daily Reminder #2: Specific knowledge is found by pursuing your genuine curiosity and passion rather than whatever is hot right now.\");\r\n\r\n\t\t//creates 2 default tasks with inputs as content\r\n\t\t//this also serves as verification of our code working \r\n\t\t//when we connect to console and client side app\r\n\t\r\n\t}\r\n\r\n\tfunction createTask(string memory _content) public {\r\n\t\t//function to put Task struct in mapping\r\n\t\ttaskCount ++;\r\n\t\t//taskCount increment every time task added to mapping\r\n\t\ttasks[taskCount] = Task(taskCount, _content, false);\r\n\t\t//creates an instance of Task\r\n\t\t//taskCount serves as id\r\n\t\t//input string is stored as string\r\n\t\t//bool value is false to show task not completed\r\n\t\t//stores it in tasks[taskCount]\r\n\t\t//taskCount index serves as serial number\r\n\r\n\t\temit TaskCreated(taskCount, _content, false);\r\n\t\t//this calls the event and broadcasts\r\n\r\n\t}\r\n\r\n}\r\n\r\n",
  "sourcePath": "C:/Users/rohit/OneDrive/Desktop/BLOCKCHAIN DEV/DApp University/eth-todo-list/contracts/TodoList.sol",
  "compiler": {
    "name": "solc",
    "version": "0.5.0+commit.1d4f565a.Emscripten.clang"
  },
  "schemaVersion": "3.0.2",
  "updatedAt": "2021-12-19T11:56:58.233Z",
  "devdoc": {
    "methods": {}
  },
  "userdoc": {
    "methods": {}
  }
}