{
  "contractName": "TodoList",
  "abi": [
    {
      "constant": true,
      "inputs": [
        {
          "name": "",
          "type": "uint256"
        }
      ],
      "name": "tasks",
      "outputs": [
        {
          "name": "id",
          "type": "uint256"
        },
        {
          "name": "content",
          "type": "string"
        },
        {
          "name": "completed",
          "type": "bool"
        }
      ],
      "payable": false,
      "stateMutability": "view",
      "type": "function",
      "signature": "0x8d977672"
    },
    {
      "constant": true,
      "inputs": [],
      "name": "taskCount",
      "outputs": [
        {
          "name": "",
          "type": "uint256"
        }
      ],
      "payable": false,
      "stateMutability": "view",
      "type": "function",
      "signature": "0xb6cb58a5"
    },
    {
      "inputs": [],
      "payable": false,
      "stateMutability": "nonpayable",
      "type": "constructor",
      "signature": "constructor"
    },
    {
      "constant": false,
      "inputs": [
        {
          "name": "_content",
          "type": "string"
        }
      ],
      "name": "createTask",
      "outputs": [],
      "payable": false,
      "stateMutability": "nonpayable",
      "type": "function",
      "signature": "0x111002aa"
    }
  ],
  "bytecode": "0x60806040526000805534801561001457600080fd5b506100d560a060405190810160405280607f81526020017f4461696c792052656d696e6465722023313a20416c6c207468652062656e656681526020017f69747320696e206c69666520636f6d652066726f6d20636f6d706f756e64206981526020017f6e746572657374202d2072656c6174696f6e73686970732c206d6f6e65792c2081526020017f6861626974732c20616e797468696e67206f6620696d706f7274616e63652e00815250610105640100000000026401000000009004565b61010060c060405190810160405280608481526020016105ee60849139640100000000610105810204565b61020c565b600080546001908101808355604080516060810182528281526020808201878152828401879052938652848152919094208451815591518051929361015293908501929190910190610171565b50604091909101516002909101805460ff191691151591909117905550565b828054600181600116156101000203166002900490600052602060002090601f016020900481019282601f106101b257805160ff19168380011785556101df565b828001600101855582156101df579182015b828111156101df5782518255916020019190600101906101c4565b506101eb9291506101ef565b5090565b61020991905b808211156101eb57600081556001016101f5565b90565b6103d38061021b6000396000f3fe6080604052600436106100565763ffffffff7c0100000000000000000000000000000000000000000000000000000000600035041663111002aa811461005b5780638d97767214610110578063b6cb58a5146101c4575b600080fd5b34801561006757600080fd5b5061010e6004803603602081101561007e57600080fd5b81019060208101813564010000000081111561009957600080fd5b8201836020820111156100ab57600080fd5b803590602001918460018302840111640100000000831117156100cd57600080fd5b91908080601f0160208091040260200160405190810160405280939291908181526020018383808284376000920191909152509295506101eb945050505050565b005b34801561011c57600080fd5b5061013a6004803603602081101561013357600080fd5b5035610257565b604051808481526020018060200183151515158152602001828103825284818151815260200191508051906020019080838360005b8381101561018757818101518382015260200161016f565b50505050905090810190601f1680156101b45780820380516001836020036101000a031916815260200191505b5094505050505060405180910390f35b3480156101d057600080fd5b506101d9610306565b60408051918252519081900360200190f35b60008054600190810180835560408051606081018252828152602080820187815282840187905293865284815291909420845181559151805192936102389390850192919091019061030c565b50604091909101516002909101805460ff191691151591909117905550565b600160208181526000928352604092839020805481840180548651600296821615610100026000190190911695909504601f810185900485028601850190965285855290949193929091908301828280156102f35780601f106102c8576101008083540402835291602001916102f3565b820191906000526020600020905b8154815290600101906020018083116102d657829003601f168201915b5050506002909301549192505060ff1683565b60005481565b828054600181600116156101000203166002900490600052602060002090601f016020900481019282601f1061034d57805160ff191683800117855561037a565b8280016001018555821561037a579182015b8281111561037a57825182559160200191906001019061035f565b5061038692915061038a565b5090565b6103a491905b808211156103865760008155600101610390565b9056fea165627a7a72305820b4b9904ead6432c4fc9faf28a3ee20fd5e458320984d3afc5bc7999b9917891f00294461696c792052656d696e6465722023323a205370656369666963206b6e6f776c6564676520697320666f756e64206279207075727375696e6720796f75722067656e75696e6520637572696f7369747920616e642070617373696f6e20726174686572207468616e20776861746576657220697320686f74207269676874206e6f772e",
  "source": "pragma solidity ^0.5.0;\r\n//Declaring the Solidity version\r\n\r\ncontract TodoList {\r\n\t//Declaring the smart contract with name \"TodoList\"\r\n\tuint public taskCount = 0;\r\n\t//uint initiates a state variable\r\n\t//taskCount will keep track of the number of task\r\n\t//Default Value 0 assigned to taskCount\r\n\t//\"public\" offers a way to read this value from \r\n\t//the smart contract\r\n\t//\"public\" keyword creates a function taskCount() that\r\n\t//lets us access its value outside the contract\r\n\r\n\tstruct Task {\r\n\t\t//struct allows us to create our own data type\r\n\t\t//we name this Task\r\n\t\t//below we define some attributes\r\n\t\tuint id;\r\n\t\t//id will be ID\r\n\t\tstring content;\r\n\t\t//will simply be some text\r\n\t\tbool completed;\r\n\t\t//will check the completed state of Task\r\n\t}\r\n\r\n\tmapping(uint => Task) public tasks;\r\n\t//uint takes id from Task as a key\r\n\t//tasks itself are a value\r\n\t//uint, task is key-value pair\r\n\t//mapping creates an associative array like a data base\r\n\t//public creates a function to access task\r\n\t//outside mapping\r\n\r\n\tconstructor() public {\r\n\t\t//constructor function called when contract runs 1st time\r\n\t\t//in this case while deployment\r\n\t\t//this function will add tasks to the client side app\r\n\t\t//when smart contract is deployed\r\n\r\n\t\tcreateTask(\"Daily Reminder #1: All the benefits in life come from compound interest - relationships, money, habits, anything of importance.\");\r\n\r\n\t\tcreateTask(\"Daily Reminder #2: Specific knowledge is found by pursuing your genuine curiosity and passion rather than whatever is hot right now.\");\r\n\r\n\t\t//creates 2 default tasks with inputs as content\r\n\t\t//this also serves as verification of our code working \r\n\t\t//when we connect to console and client side app\r\n\t\r\n\t}\r\n\r\n\tfunction createTask(string memory _content) public {\r\n\t\t//function to put Task struct in mapping\r\n\t\ttaskCount ++;\r\n\t\t//taskCount increment every time task added to mapping\r\n\t\ttasks[taskCount] = Task(taskCount, _content, false);\r\n\t\t//creates an instance of Task\r\n\t\t//taskCount serves as id\r\n\t\t//input string is stored as string\r\n\t\t//bool value is false to show task not completed\r\n\t\t//stores it in tasks[taskCount]\r\n\t\t//taskCount index serves as serial number\r\n\t}\r\n\r\n}\r\n\r\n",
  "sourcePath": "C:/Users/rohit/OneDrive/Desktop/BLOCKCHAIN DEV/DApp University/eth-todo-list/contracts/TodoList.sol",
  "compiler": {
    "name": "solc",
    "version": "0.5.0+commit.1d4f565a.Emscripten.clang"
  },
  "schemaVersion": "3.0.2",
  "updatedAt": "2021-12-19T03:45:13.268Z",
  "devdoc": {
    "methods": {}
  },
  "userdoc": {
    "methods": {}
  }
}