{
  "contractName": "TodoList",
  "abi": [
    {
      "constant": true,
      "inputs": [],
      "name": "taskCount",
      "outputs": [
        {
          "name": "",
          "type": "uint256"
        }
      ],
      "payable": false,
      "stateMutability": "view",
      "type": "function",
      "signature": "0xb6cb58a5"
    }
  ],
  "bytecode": "0x608060405260008055348015601357600080fd5b50609e806100226000396000f3fe608060405260043610603f576000357c0100000000000000000000000000000000000000000000000000000000900463ffffffff168063b6cb58a5146044575b600080fd5b348015604f57600080fd5b506056606c565b6040518082815260200191505060405180910390f35b6000548156fea165627a7a7230582070105bd56fd2e71547f8e839d85c123bf193161e2a543eea4829cd08dea3ebf30029",
  "source": "pragma solidity ^0.5.0;\r\n//Declaring the Solidity version\r\n\r\ncontract TodoList {\r\n\t//Declaring the smart contract with name \"TodoList\"\r\n\tuint public taskCount = 0;\r\n\t//uint initiates a state variable\r\n\t//taskCount will keep track of the number of task\r\n\t//Default Value 0 assigned to taskCount\r\n\t//\"public\" offers a way to read this value from \r\n\t//the smart contract\r\n\t//\"public\" keyword creates a function taskCount() that\r\n\t//lets us access its value outside the contract\r\n}\r\n\r\n",
  "sourcePath": "C:/Users/rohit/OneDrive/Desktop/BLOCKCHAIN DEV/DApp University/eth-todo-list/contracts/TodoList.sol",
  "compiler": {
    "name": "solc",
    "version": "0.5.0+commit.1d4f565a.Emscripten.clang"
  },
  "schemaVersion": "3.0.2",
  "updatedAt": "2021-12-16T05:59:43.288Z",
  "devdoc": {
    "methods": {}
  },
  "userdoc": {
    "methods": {}
  }
}